:100000000EC01DC01CC01BC01AC01AC018C017C02B
:1000100016C015C014C013C012C011C010C01124E6
:100020001FBECFE5D2E0DEBFCDBF20E0A0E6B0E04E
:1000300001C01D92A237B207E1F7CDD0F0C0E0CFEA
:100040001F920F920FB60F921124DF92EF92FF9240
:100050000F931F932F933F934F935F936F937F93D0
:100060008F939F93AF93BF93CF93DF93EF93FF93C0
:10007000E0916800F0916900F395D0906A00E090FB
:100080006B00F0906C0000916D0010916E00D091AB
:100090006F00C0917000B09171002D2D3E2D4F2D3D
:1000A000502F612F7D2F8C2F9B2FA1E097D0E93E01
:1000B000A3E0FA0760F5F0936900E0936800D0923E
:1000C0006A00E0926B00F0926C0000936D00109358
:1000D0006E00D0936F00C0937000B0937100FF91D9
:1000E000EF91DF91CF91BF91AF919F918F917F91D0
:1000F0006F915F914F913F912F911F910F91FF90C1
:10010000EF90DF900F900FBE0F901F901895E85E54
:10011000F340D22EE32EF42E052F162FD72FC82F03
:10012000B92FBBCFF89420916A0030916B004091B9
:100130006C0050916D0060916E0070916F00809125
:1001400070009091710078940895B99AC19A83B71C
:10015000826083BF89B7826089BF78940895AF9227
:10016000BF92CF92DF92EF92FF920F931F93DADF4D
:10017000A0906000B0906100C0906200D0906300D9
:10018000E0906400F09065000091660010916700B7
:1001900031D0A4E638D0B1F0A8F088B392E0892736
:1001A00088BBC0DF20936000309361004093620001
:1001B00050936300609364007093650080936600C1
:1001C000909367001F910F91FF90EF90DF90CF9079
:1001D000BF90AF900895B9DFC2DFFECF0024A7FD26
:1001E00000942A0F301D401D501D601D701D801D84
:1001F000901D08952A193B094C095D096E097F0974
:10020000800B910B08950024A7FD00942A17300558
:100210004005500560057005800590050895F89427
:02022000FFCF0E
:00000001FF
